{
  "_format": "hh-sol-artifact-1",
  "contractName": "MyEpicNFT",
  "sourceName": "contracts/MyEpicNFT.sol",
  "abi": [
    {
      "inputs": [],
      "stateMutability": "nonpayable",
      "type": "constructor"
    },
    {
      "anonymous": false,
      "inputs": [
        {
          "indexed": true,
          "internalType": "address",
          "name": "owner",
          "type": "address"
        },
        {
          "indexed": true,
          "internalType": "address",
          "name": "approved",
          "type": "address"
        },
        {
          "indexed": true,
          "internalType": "uint256",
          "name": "tokenId",
          "type": "uint256"
        }
      ],
      "name": "Approval",
      "type": "event"
    },
    {
      "anonymous": false,
      "inputs": [
        {
          "indexed": true,
          "internalType": "address",
          "name": "owner",
          "type": "address"
        },
        {
          "indexed": true,
          "internalType": "address",
          "name": "operator",
          "type": "address"
        },
        {
          "indexed": false,
          "internalType": "bool",
          "name": "approved",
          "type": "bool"
        }
      ],
      "name": "ApprovalForAll",
      "type": "event"
    },
    {
      "anonymous": false,
      "inputs": [
        {
          "indexed": false,
          "internalType": "address",
          "name": "sender",
          "type": "address"
        },
        {
          "indexed": false,
          "internalType": "uint256",
          "name": "tokenId",
          "type": "uint256"
        }
      ],
      "name": "NewEpicNFTMinted",
      "type": "event"
    },
    {
      "anonymous": false,
      "inputs": [
        {
          "indexed": true,
          "internalType": "address",
          "name": "from",
          "type": "address"
        },
        {
          "indexed": true,
          "internalType": "address",
          "name": "to",
          "type": "address"
        },
        {
          "indexed": true,
          "internalType": "uint256",
          "name": "tokenId",
          "type": "uint256"
        }
      ],
      "name": "Transfer",
      "type": "event"
    },
    {
      "inputs": [
        {
          "internalType": "address",
          "name": "to",
          "type": "address"
        },
        {
          "internalType": "uint256",
          "name": "tokenId",
          "type": "uint256"
        }
      ],
      "name": "approve",
      "outputs": [],
      "stateMutability": "nonpayable",
      "type": "function"
    },
    {
      "inputs": [
        {
          "internalType": "address",
          "name": "owner",
          "type": "address"
        }
      ],
      "name": "balanceOf",
      "outputs": [
        {
          "internalType": "uint256",
          "name": "",
          "type": "uint256"
        }
      ],
      "stateMutability": "view",
      "type": "function"
    },
    {
      "inputs": [
        {
          "internalType": "uint256",
          "name": "tokenId",
          "type": "uint256"
        }
      ],
      "name": "getApproved",
      "outputs": [
        {
          "internalType": "address",
          "name": "",
          "type": "address"
        }
      ],
      "stateMutability": "view",
      "type": "function"
    },
    {
      "inputs": [
        {
          "internalType": "address",
          "name": "owner",
          "type": "address"
        },
        {
          "internalType": "address",
          "name": "operator",
          "type": "address"
        }
      ],
      "name": "isApprovedForAll",
      "outputs": [
        {
          "internalType": "bool",
          "name": "",
          "type": "bool"
        }
      ],
      "stateMutability": "view",
      "type": "function"
    },
    {
      "inputs": [],
      "name": "makeAnEpicNFT",
      "outputs": [],
      "stateMutability": "nonpayable",
      "type": "function"
    },
    {
      "inputs": [],
      "name": "maxNumOfTokens",
      "outputs": [
        {
          "internalType": "uint256",
          "name": "",
          "type": "uint256"
        }
      ],
      "stateMutability": "pure",
      "type": "function"
    },
    {
      "inputs": [],
      "name": "name",
      "outputs": [
        {
          "internalType": "string",
          "name": "",
          "type": "string"
        }
      ],
      "stateMutability": "view",
      "type": "function"
    },
    {
      "inputs": [],
      "name": "nextTokenIds",
      "outputs": [
        {
          "internalType": "uint256",
          "name": "",
          "type": "uint256"
        }
      ],
      "stateMutability": "view",
      "type": "function"
    },
    {
      "inputs": [
        {
          "internalType": "uint256",
          "name": "tokenId",
          "type": "uint256"
        }
      ],
      "name": "ownerOf",
      "outputs": [
        {
          "internalType": "address",
          "name": "",
          "type": "address"
        }
      ],
      "stateMutability": "view",
      "type": "function"
    },
    {
      "inputs": [
        {
          "internalType": "uint256",
          "name": "tokenId",
          "type": "uint256"
        }
      ],
      "name": "pickRandomFirstWord",
      "outputs": [
        {
          "internalType": "string",
          "name": "",
          "type": "string"
        }
      ],
      "stateMutability": "view",
      "type": "function"
    },
    {
      "inputs": [
        {
          "internalType": "uint256",
          "name": "tokenId",
          "type": "uint256"
        }
      ],
      "name": "pickRandomSecondWord",
      "outputs": [
        {
          "internalType": "string",
          "name": "",
          "type": "string"
        }
      ],
      "stateMutability": "view",
      "type": "function"
    },
    {
      "inputs": [
        {
          "internalType": "uint256",
          "name": "tokenId",
          "type": "uint256"
        }
      ],
      "name": "pickRandomThirdWord",
      "outputs": [
        {
          "internalType": "string",
          "name": "",
          "type": "string"
        }
      ],
      "stateMutability": "view",
      "type": "function"
    },
    {
      "inputs": [
        {
          "internalType": "address",
          "name": "from",
          "type": "address"
        },
        {
          "internalType": "address",
          "name": "to",
          "type": "address"
        },
        {
          "internalType": "uint256",
          "name": "tokenId",
          "type": "uint256"
        }
      ],
      "name": "safeTransferFrom",
      "outputs": [],
      "stateMutability": "nonpayable",
      "type": "function"
    },
    {
      "inputs": [
        {
          "internalType": "address",
          "name": "from",
          "type": "address"
        },
        {
          "internalType": "address",
          "name": "to",
          "type": "address"
        },
        {
          "internalType": "uint256",
          "name": "tokenId",
          "type": "uint256"
        },
        {
          "internalType": "bytes",
          "name": "_data",
          "type": "bytes"
        }
      ],
      "name": "safeTransferFrom",
      "outputs": [],
      "stateMutability": "nonpayable",
      "type": "function"
    },
    {
      "inputs": [
        {
          "internalType": "address",
          "name": "operator",
          "type": "address"
        },
        {
          "internalType": "bool",
          "name": "approved",
          "type": "bool"
        }
      ],
      "name": "setApprovalForAll",
      "outputs": [],
      "stateMutability": "nonpayable",
      "type": "function"
    },
    {
      "inputs": [
        {
          "internalType": "bytes4",
          "name": "interfaceId",
          "type": "bytes4"
        }
      ],
      "name": "supportsInterface",
      "outputs": [
        {
          "internalType": "bool",
          "name": "",
          "type": "bool"
        }
      ],
      "stateMutability": "view",
      "type": "function"
    },
    {
      "inputs": [],
      "name": "symbol",
      "outputs": [
        {
          "internalType": "string",
          "name": "",
          "type": "string"
        }
      ],
      "stateMutability": "view",
      "type": "function"
    },
    {
      "inputs": [
        {
          "internalType": "uint256",
          "name": "tokenId",
          "type": "uint256"
        }
      ],
      "name": "tokenURI",
      "outputs": [
        {
          "internalType": "string",
          "name": "",
          "type": "string"
        }
      ],
      "stateMutability": "view",
      "type": "function"
    },
    {
      "inputs": [
        {
          "internalType": "address",
          "name": "from",
          "type": "address"
        },
        {
          "internalType": "address",
          "name": "to",
          "type": "address"
        },
        {
          "internalType": "uint256",
          "name": "tokenId",
          "type": "uint256"
        }
      ],
      "name": "transferFrom",
      "outputs": [],
      "stateMutability": "nonpayable",
      "type": "function"
    }
  ],
  "bytecode": "0x608060405260405180610160016040528061012f81526020016200460661012f913960089080519060200190620000389291906200067e565b506040518060c001604052806040518060400160405280600781526020017f726163636f6f6e0000000000000000000000000000000000000000000000000081525081526020016040518060400160405280600381526020017f646f67000000000000000000000000000000000000000000000000000000000081525081526020016040518060400160405280600381526020017f636f77000000000000000000000000000000000000000000000000000000000081525081526020016040518060400160405280600481526020017f776f6c660000000000000000000000000000000000000000000000000000000081525081526020016040518060400160405280600581526020017f7a6562726100000000000000000000000000000000000000000000000000000081525081526020016040518060400160405280600581526020017f736b756e6b0000000000000000000000000000000000000000000000000000008152508152506009906006620001b69291906200070f565b506040518060c001604052806040518060400160405280600481526020017f62656e640000000000000000000000000000000000000000000000000000000081525081526020016040518060400160405280600581526020017f627265616b00000000000000000000000000000000000000000000000000000081525081526020016040518060400160405280600581526020017f636172727900000000000000000000000000000000000000000000000000000081525081526020016040518060400160405280600781526020017f636f6c6c6563740000000000000000000000000000000000000000000000000081525081526020016040518060400160405280600581526020017f666c69636b00000000000000000000000000000000000000000000000000000081525081526020016040518060400160405280600481526020017f6c6f616400000000000000000000000000000000000000000000000000000000815250815250600a906006620003349291906200070f565b506040518060c001604052806040518060400160405280600681526020017f626f74746c65000000000000000000000000000000000000000000000000000081525081526020016040518060400160405280600681526020017f6275636b6574000000000000000000000000000000000000000000000000000081525081526020016040518060400160405280600a81526020017f63616c63756c61746f720000000000000000000000000000000000000000000081525081526020016040518060400160405280600a81526020017f63686f70737469636b730000000000000000000000000000000000000000000081525081526020016040518060400160405280600381526020017f6d6f70000000000000000000000000000000000000000000000000000000000081525081526020016040518060400160405280600681526020017f63616e646c650000000000000000000000000000000000000000000000000000815250815250600b906006620004b29291906200070f565b50348015620004c057600080fd5b506040518060400160405280600981526020017f5371756172654e465400000000000000000000000000000000000000000000008152506040518060400160405280600681526020017f53515541524500000000000000000000000000000000000000000000000000008152508160009080519060200190620005459291906200067e565b5080600190805190602001906200055e9291906200067e565b505050620005ac6040518060400160405280601881526020017f54686973206973206d79204e465420636f6e74726163742e0000000000000000815250620005b260201b620012701760201c565b62000930565b6200065281604051602401620005c9919062000844565b6040516020818303038152906040527f41304fac000000000000000000000000000000000000000000000000000000007bffffffffffffffffffffffffffffffffffffffffffffffffffffffff19166020820180517bffffffffffffffffffffffffffffffffffffffffffffffffffffffff83818316178352505050506200065560201b60201c565b50565b60008151905060006a636f6e736f6c652e6c6f679050602083016000808483855afa5050505050565b8280546200068c90620008ba565b90600052602060002090601f016020900481019282620006b05760008555620006fc565b82601f10620006cb57805160ff1916838001178555620006fc565b82800160010185558215620006fc579182015b82811115620006fb578251825591602001919060010190620006de565b5b5090506200070b919062000776565b5090565b82805482825590600052602060002090810192821562000763579160200282015b8281111562000762578251829080519060200190620007519291906200067e565b509160200191906001019062000730565b5b50905062000772919062000795565b5090565b5b808211156200079157600081600090555060010162000777565b5090565b5b80821115620007b95760008181620007af9190620007bd565b5060010162000796565b5090565b508054620007cb90620008ba565b6000825580601f10620007df575062000800565b601f016020900490600052602060002090810190620007ff919062000776565b5b50565b6000620008108262000868565b6200081c818562000873565b93506200082e81856020860162000884565b62000839816200091f565b840191505092915050565b6000602082019050818103600083015262000860818462000803565b905092915050565b600081519050919050565b600082825260208201905092915050565b60005b83811015620008a457808201518184015260208101905062000887565b83811115620008b4576000848401525b50505050565b60006002820490506001821680620008d357607f821691505b60208210811415620008ea57620008e9620008f0565b5b50919050565b7f4e487b7100000000000000000000000000000000000000000000000000000000600052602260045260246000fd5b6000601f19601f8301169050919050565b613cc680620009406000396000f3fe608060405234801561001057600080fd5b50600436106101215760003560e01c806370a08231116100ad578063c575757a11610071578063c575757a1461032c578063c87b56dd1461035c578063de9d132f1461038c578063e8fa43c914610396578063e985e9c5146103b457610121565b806370a082311461027657806395d89b41146102a6578063a22cb465146102c4578063b187301f146102e0578063b88d4fde1461031057610121565b806323b872dd116100f457806323b872dd146101c05780632de38d68146101dc57806342842e0e1461020c578063526cf5c9146102285780636352211e1461024657610121565b806301ffc9a71461012657806306fdde0314610156578063081812fc14610174578063095ea7b3146101a4575b600080fd5b610140600480360381019061013b9190612738565b6103e4565b60405161014d9190612e65565b60405180910390f35b61015e6104c6565b60405161016b9190612e80565b60405180910390f35b61018e6004803603810190610189919061278a565b610558565b60405161019b9190612dd5565b60405180910390f35b6101be60048036038101906101b991906126fc565b6105dd565b005b6101da60048036038101906101d591906125f6565b6106f5565b005b6101f660048036038101906101f1919061278a565b610755565b6040516102039190612e80565b60405180910390f35b610226600480360381019061022191906125f6565b6108f1565b005b610230610911565b60405161023d9190613130565b60405180910390f35b610260600480360381019061025b919061278a565b610922565b60405161026d9190612dd5565b60405180910390f35b610290600480360381019061028b9190612591565b6109d4565b60405161029d9190613130565b60405180910390f35b6102ae610a8c565b6040516102bb9190612e80565b60405180910390f35b6102de60048036038101906102d991906126c0565b610b1e565b005b6102fa60048036038101906102f5919061278a565b610b34565b6040516103079190612e80565b60405180910390f35b61032a60048036038101906103259190612645565b610c52565b005b6103466004803603810190610341919061278a565b610cb4565b6040516103539190612e80565b60405180910390f35b6103766004803603810190610371919061278a565b610dd2565b6040516103839190612e80565b60405180910390f35b610394610f24565b005b61039e6111d3565b6040516103ab9190613130565b60405180910390f35b6103ce60048036038101906103c991906125ba565b6111dc565b6040516103db9190612e65565b60405180910390f35b60007f80ac58cd000000000000000000000000000000000000000000000000000000007bffffffffffffffffffffffffffffffffffffffffffffffffffffffff1916827bffffffffffffffffffffffffffffffffffffffffffffffffffffffff191614806104af57507f5b5e139f000000000000000000000000000000000000000000000000000000007bffffffffffffffffffffffffffffffffffffffffffffffffffffffff1916827bffffffffffffffffffffffffffffffffffffffffffffffffffffffff1916145b806104bf57506104be82611309565b5b9050919050565b6060600080546104d5906133c4565b80601f0160208091040260200160405190810160405280929190818152602001828054610501906133c4565b801561054e5780601f106105235761010080835404028352916020019161054e565b820191906000526020600020905b81548152906001019060200180831161053157829003601f168201915b5050505050905090565b600061056382611373565b6105a2576040517f08c379a000000000000000000000000000000000000000000000000000000000815260040161059990613090565b60405180910390fd5b6004600083815260200190815260200160002060009054906101000a900473ffffffffffffffffffffffffffffffffffffffff169050919050565b60006105e882610922565b90508073ffffffffffffffffffffffffffffffffffffffff168373ffffffffffffffffffffffffffffffffffffffff161415610659576040517f08c379a0000000000000000000000000000000000000000000000000000000008152600401610650906130d0565b60405180910390fd5b8073ffffffffffffffffffffffffffffffffffffffff166106786113df565b73ffffffffffffffffffffffffffffffffffffffff1614806106a757506106a6816106a16113df565b6111dc565b5b6106e6576040517f08c379a00000000000000000000000000000000000000000000000000000000081526004016106dd90612fd0565b60405180910390fd5b6106f083836113e7565b505050565b6107066107006113df565b826114a0565b610745576040517f08c379a000000000000000000000000000000000000000000000000000000000815260040161073c906130f0565b60405180910390fd5b61075083838361157e565b505050565b60606000610789610765846117e5565b6040516020016107759190612d91565b604051602081830303815290604052611992565b90506107ca6040518060400160405280600b81526020017f72616e6420736565643a20000000000000000000000000000000000000000000815250826119c5565b600980549050816107db9190613470565b905061081c6040518060400160405280601181526020017f72616e6420666972737420776f72643a20000000000000000000000000000000815250826119c5565b60098181548110610856577f4e487b7100000000000000000000000000000000000000000000000000000000600052603260045260246000fd5b90600052602060002001805461086b906133c4565b80601f0160208091040260200160405190810160405280929190818152602001828054610897906133c4565b80156108e45780601f106108b9576101008083540402835291602001916108e4565b820191906000526020600020905b8154815290600101906020018083116108c757829003601f168201915b5050505050915050919050565b61090c83838360405180602001604052806000815250610c52565b505050565b600061091d6007611a61565b905090565b6000806002600084815260200190815260200160002060009054906101000a900473ffffffffffffffffffffffffffffffffffffffff169050600073ffffffffffffffffffffffffffffffffffffffff168173ffffffffffffffffffffffffffffffffffffffff1614156109cb576040517f08c379a00000000000000000000000000000000000000000000000000000000081526004016109c290613010565b60405180910390fd5b80915050919050565b60008073ffffffffffffffffffffffffffffffffffffffff168273ffffffffffffffffffffffffffffffffffffffff161415610a45576040517f08c379a0000000000000000000000000000000000000000000000000000000008152600401610a3c90612ff0565b60405180910390fd5b600360008373ffffffffffffffffffffffffffffffffffffffff1673ffffffffffffffffffffffffffffffffffffffff168152602001908152602001600020549050919050565b606060018054610a9b906133c4565b80601f0160208091040260200160405190810160405280929190818152602001828054610ac7906133c4565b8015610b145780601f10610ae957610100808354040283529160200191610b14565b820191906000526020600020905b815481529060010190602001808311610af757829003601f168201915b5050505050905090565b610b30610b296113df565b8383611a6f565b5050565b60606000610b68610b44846117e5565b604051602001610b549190612d2a565b604051602081830303815290604052611992565b9050600a8054905081610b7b9190613470565b9050600a8181548110610bb7577f4e487b7100000000000000000000000000000000000000000000000000000000600052603260045260246000fd5b906000526020600020018054610bcc906133c4565b80601f0160208091040260200160405190810160405280929190818152602001828054610bf8906133c4565b8015610c455780601f10610c1a57610100808354040283529160200191610c45565b820191906000526020600020905b815481529060010190602001808311610c2857829003601f168201915b5050505050915050919050565b610c63610c5d6113df565b836114a0565b610ca2576040517f08c379a0000000000000000000000000000000000000000000000000000000008152600401610c99906130f0565b60405180910390fd5b610cae84848484611bdc565b50505050565b60606000610ce8610cc4846117e5565b604051602001610cd49190612d08565b604051602081830303815290604052611992565b9050600b8054905081610cfb9190613470565b9050600b8181548110610d37577f4e487b7100000000000000000000000000000000000000000000000000000000600052603260045260246000fd5b906000526020600020018054610d4c906133c4565b80601f0160208091040260200160405190810160405280929190818152602001828054610d78906133c4565b8015610dc55780601f10610d9a57610100808354040283529160200191610dc5565b820191906000526020600020905b815481529060010190602001808311610da857829003601f168201915b5050505050915050919050565b6060610ddd82611373565b610e1c576040517f08c379a0000000000000000000000000000000000000000000000000000000008152600401610e1390613070565b60405180910390fd5b6000600660008481526020019081526020016000208054610e3c906133c4565b80601f0160208091040260200160405190810160405280929190818152602001828054610e68906133c4565b8015610eb55780601f10610e8a57610100808354040283529160200191610eb5565b820191906000526020600020905b815481529060010190602001808311610e9857829003601f168201915b505050505090506000610ec6611c38565b9050600081511415610edc578192505050610f1f565b600082511115610f11578082604051602001610ef9929190612c84565b60405160208183030381529060405292505050610f1f565b610f1a84611c4f565b925050505b919050565b6000610f306007611a61565b9050600a8110610f75576040517f08c379a0000000000000000000000000000000000000000000000000000000008152600401610f6c90613110565b60405180910390fd5b6000610f8082610755565b90506000610f8d83610b34565b90506000610f9a84610cb4565b90506000838383604051602001610fb393929190612ca8565b60405160208183030381529060405290506000600882604051602001610fda929190612cd9565b60405160208183030381529060405290506110296040518060400160405280601581526020017f0a2d2d2d2d2d2d2d2d2d2d2d2d2d2d2d2d2d2d2d2d0000000000000000000000815250611270565b61103281611270565b6110706040518060400160405280601581526020017f2d2d2d2d2d2d2d2d2d2d2d2d2d2d2d2d2d2d2d2d0a0000000000000000000000815250611270565b60006110a48361107f84611cf6565b604051602001611090929190612d4c565b604051602081830303815290604052611cf6565b90506000816040516020016110b99190612db3565b60405160208183030381529060405290506111086040518060400160405280601581526020017f0a2d2d2d2d2d20546f6b656e20555249202d2d2d2d0000000000000000000000815250611270565b61111181611270565b61114f6040518060400160405280601581526020017f2d2d2d2d2d2d2d2d2d2d2d2d2d2d2d2d2d2d2d2d0a0000000000000000000000815250611270565b6111593389611eb4565b6111638882611ed2565b611186604051806060016040528060258152602001613c2c602591398933611f46565b6111906007611fe5565b7febb98688741ffa4c7589bf325de30cf7becb63de567842e1ccdb6cb949fdc82c33896040516111c1929190612e3c565b60405180910390a15050505050505050565b6000600a905090565b6000600560008473ffffffffffffffffffffffffffffffffffffffff1673ffffffffffffffffffffffffffffffffffffffff16815260200190815260200160002060008373ffffffffffffffffffffffffffffffffffffffff1673ffffffffffffffffffffffffffffffffffffffff16815260200190815260200160002060009054906101000a900460ff16905092915050565b611306816040516024016112849190612e80565b6040516020818303038152906040527f41304fac000000000000000000000000000000000000000000000000000000007bffffffffffffffffffffffffffffffffffffffffffffffffffffffff19166020820180517bffffffffffffffffffffffffffffffffffffffffffffffffffffffff8381831617835250505050611ffb565b50565b60007f01ffc9a7000000000000000000000000000000000000000000000000000000007bffffffffffffffffffffffffffffffffffffffffffffffffffffffff1916827bffffffffffffffffffffffffffffffffffffffffffffffffffffffff1916149050919050565b60008073ffffffffffffffffffffffffffffffffffffffff166002600084815260200190815260200160002060009054906101000a900473ffffffffffffffffffffffffffffffffffffffff1673ffffffffffffffffffffffffffffffffffffffff1614159050919050565b600033905090565b816004600083815260200190815260200160002060006101000a81548173ffffffffffffffffffffffffffffffffffffffff021916908373ffffffffffffffffffffffffffffffffffffffff160217905550808273ffffffffffffffffffffffffffffffffffffffff1661145a83610922565b73ffffffffffffffffffffffffffffffffffffffff167f8c5be1e5ebec7d5bd14f71427d1e84f3dd0314c0f7b2291e5b200ac8c7c3b92560405160405180910390a45050565b60006114ab82611373565b6114ea576040517f08c379a00000000000000000000000000000000000000000000000000000000081526004016114e190612fb0565b60405180910390fd5b60006114f583610922565b90508073ffffffffffffffffffffffffffffffffffffffff168473ffffffffffffffffffffffffffffffffffffffff161480611537575061153681856111dc565b5b8061157557508373ffffffffffffffffffffffffffffffffffffffff1661155d84610558565b73ffffffffffffffffffffffffffffffffffffffff16145b91505092915050565b8273ffffffffffffffffffffffffffffffffffffffff1661159e82610922565b73ffffffffffffffffffffffffffffffffffffffff16146115f4576040517f08c379a00000000000000000000000000000000000000000000000000000000081526004016115eb90612f30565b60405180910390fd5b600073ffffffffffffffffffffffffffffffffffffffff168273ffffffffffffffffffffffffffffffffffffffff161415611664576040517f08c379a000000000000000000000000000000000000000000000000000000000815260040161165b90612f70565b60405180910390fd5b61166f838383612024565b61167a6000826113e7565b6001600360008573ffffffffffffffffffffffffffffffffffffffff1673ffffffffffffffffffffffffffffffffffffffff16815260200190815260200160002060008282546116ca91906132da565b925050819055506001600360008473ffffffffffffffffffffffffffffffffffffffff1673ffffffffffffffffffffffffffffffffffffffff168152602001908152602001600020600082825461172191906131f9565b92505081905550816002600083815260200190815260200160002060006101000a81548173ffffffffffffffffffffffffffffffffffffffff021916908373ffffffffffffffffffffffffffffffffffffffff160217905550808273ffffffffffffffffffffffffffffffffffffffff168473ffffffffffffffffffffffffffffffffffffffff167fddf252ad1be2c89b69c2b068fc378daa952ba7f163c4a11628f55a4df523b3ef60405160405180910390a46117e0838383612029565b505050565b6060600082141561182d576040518060400160405280600181526020017f3000000000000000000000000000000000000000000000000000000000000000815250905061198d565b600082905060005b6000821461185f57808061184890613427565b915050600a82611858919061324f565b9150611835565b60008167ffffffffffffffff8111156118a1577f4e487b7100000000000000000000000000000000000000000000000000000000600052604160045260246000fd5b6040519080825280601f01601f1916602001820160405280156118d35781602001600182028036833780820191505090505b5090505b60008514611986576001826118ec91906132da565b9150600a856118fb9190613470565b603061190791906131f9565b60f81b818381518110611943577f4e487b7100000000000000000000000000000000000000000000000000000000600052603260045260246000fd5b60200101907effffffffffffffffffffffffffffffffffffffffffffffffffffffffffffff1916908160001a905350600a8561197f919061324f565b94506118d7565b8093505050505b919050565b6000816040516020016119a59190612c6d565b6040516020818303038152906040528051906020012060001c9050919050565b611a5d82826040516024016119db929190612ea2565b6040516020818303038152906040527f9710a9d0000000000000000000000000000000000000000000000000000000007bffffffffffffffffffffffffffffffffffffffffffffffffffffffff19166020820180517bffffffffffffffffffffffffffffffffffffffffffffffffffffffff8381831617835250505050611ffb565b5050565b600081600001549050919050565b8173ffffffffffffffffffffffffffffffffffffffff168373ffffffffffffffffffffffffffffffffffffffff161415611ade576040517f08c379a0000000000000000000000000000000000000000000000000000000008152600401611ad590612f90565b60405180910390fd5b80600560008573ffffffffffffffffffffffffffffffffffffffff1673ffffffffffffffffffffffffffffffffffffffff16815260200190815260200160002060008473ffffffffffffffffffffffffffffffffffffffff1673ffffffffffffffffffffffffffffffffffffffff16815260200190815260200160002060006101000a81548160ff0219169083151502179055508173ffffffffffffffffffffffffffffffffffffffff168373ffffffffffffffffffffffffffffffffffffffff167f17307eab39ab6107e8899845ad3d59bd9653f200f220920489ca2b5937696c3183604051611bcf9190612e65565b60405180910390a3505050565b611be784848461157e565b611bf38484848461202e565b611c32576040517f08c379a0000000000000000000000000000000000000000000000000000000008152600401611c2990612f10565b60405180910390fd5b50505050565b606060405180602001604052806000815250905090565b6060611c5a82611373565b611c99576040517f08c379a0000000000000000000000000000000000000000000000000000000008152600401611c90906130b0565b60405180910390fd5b6000611ca3611c38565b90506000815111611cc35760405180602001604052806000815250611cee565b80611ccd846117e5565b604051602001611cde929190612c84565b6040516020818303038152906040525b915050919050565b60606000825190506000811415611d1f5760405180602001604052806000815250915050611eaf565b60006003600283611d3091906131f9565b611d3a919061324f565b6004611d469190613280565b90506000602082611d5791906131f9565b67ffffffffffffffff811115611d96577f4e487b7100000000000000000000000000000000000000000000000000000000600052604160045260246000fd5b6040519080825280601f01601f191660200182016040528015611dc85781602001600182028036833780820191505090505b5090506000604051806060016040528060408152602001613c51604091399050600181016020830160005b86811015611e6c5760038101905062ffffff818a015116603f8160121c168401518060081b905060ff603f83600c1c1686015116810190508060081b905060ff603f8360061c1686015116810190508060081b905060ff603f831686015116810190508060e01b90508084526004840193505050611df3565b506003860660018114611e865760028114611e9657611ea1565b613d3d60f01b6002830352611ea1565b603d60f81b60018303525b508484525050819450505050505b919050565b611ece8282604051806020016040528060008152506121c5565b5050565b611edb82611373565b611f1a576040517f08c379a0000000000000000000000000000000000000000000000000000000008152600401611f1190613030565b60405180910390fd5b80600660008481526020019081526020016000209080519060200190611f4192919061241d565b505050565b611fe0838383604051602401611f5e93929190612ed2565b6040516020818303038152906040527fe3849f79000000000000000000000000000000000000000000000000000000007bffffffffffffffffffffffffffffffffffffffffffffffffffffffff19166020820180517bffffffffffffffffffffffffffffffffffffffffffffffffffffffff8381831617835250505050611ffb565b505050565b6001816000016000828254019250508190555050565b60008151905060006a636f6e736f6c652e6c6f679050602083016000808483855afa5050505050565b505050565b505050565b600061204f8473ffffffffffffffffffffffffffffffffffffffff16612220565b156121b8578373ffffffffffffffffffffffffffffffffffffffff1663150b7a026120786113df565b8786866040518563ffffffff1660e01b815260040161209a9493929190612df0565b602060405180830381600087803b1580156120b457600080fd5b505af19250505080156120e557506040513d601f19601f820116820180604052508101906120e29190612761565b60015b612168573d8060008114612115576040519150601f19603f3d011682016040523d82523d6000602084013e61211a565b606091505b50600081511415612160576040517f08c379a000000000000000000000000000000000000000000000000000000000815260040161215790612f10565b60405180910390fd5b805181602001fd5b63150b7a0260e01b7bffffffffffffffffffffffffffffffffffffffffffffffffffffffff1916817bffffffffffffffffffffffffffffffffffffffffffffffffffffffff1916149150506121bd565b600190505b949350505050565b6121cf8383612243565b6121dc600084848461202e565b61221b576040517f08c379a000000000000000000000000000000000000000000000000000000000815260040161221290612f10565b60405180910390fd5b505050565b6000808273ffffffffffffffffffffffffffffffffffffffff163b119050919050565b600073ffffffffffffffffffffffffffffffffffffffff168273ffffffffffffffffffffffffffffffffffffffff1614156122b3576040517f08c379a00000000000000000000000000000000000000000000000000000000081526004016122aa90613050565b60405180910390fd5b6122bc81611373565b156122fc576040517f08c379a00000000000000000000000000000000000000000000000000000000081526004016122f390612f50565b60405180910390fd5b61230860008383612024565b6001600360008473ffffffffffffffffffffffffffffffffffffffff1673ffffffffffffffffffffffffffffffffffffffff168152602001908152602001600020600082825461235891906131f9565b92505081905550816002600083815260200190815260200160002060006101000a81548173ffffffffffffffffffffffffffffffffffffffff021916908373ffffffffffffffffffffffffffffffffffffffff160217905550808273ffffffffffffffffffffffffffffffffffffffff16600073ffffffffffffffffffffffffffffffffffffffff167fddf252ad1be2c89b69c2b068fc378daa952ba7f163c4a11628f55a4df523b3ef60405160405180910390a461241960008383612029565b5050565b828054612429906133c4565b90600052602060002090601f01602090048101928261244b5760008555612492565b82601f1061246457805160ff1916838001178555612492565b82800160010185558215612492579182015b82811115612491578251825591602001919060010190612476565b5b50905061249f91906124a3565b5090565b5b808211156124bc5760008160009055506001016124a4565b5090565b60006124d36124ce84613170565b61314b565b9050828152602081018484840111156124eb57600080fd5b6124f6848285613382565b509392505050565b60008135905061250d81613bcf565b92915050565b60008135905061252281613be6565b92915050565b60008135905061253781613bfd565b92915050565b60008151905061254c81613bfd565b92915050565b600082601f83011261256357600080fd5b81356125738482602086016124c0565b91505092915050565b60008135905061258b81613c14565b92915050565b6000602082840312156125a357600080fd5b60006125b1848285016124fe565b91505092915050565b600080604083850312156125cd57600080fd5b60006125db858286016124fe565b92505060206125ec858286016124fe565b9150509250929050565b60008060006060848603121561260b57600080fd5b6000612619868287016124fe565b935050602061262a868287016124fe565b925050604061263b8682870161257c565b9150509250925092565b6000806000806080858703121561265b57600080fd5b6000612669878288016124fe565b945050602061267a878288016124fe565b935050604061268b8782880161257c565b925050606085013567ffffffffffffffff8111156126a857600080fd5b6126b487828801612552565b91505092959194509250565b600080604083850312156126d357600080fd5b60006126e1858286016124fe565b92505060206126f285828601612513565b9150509250929050565b6000806040838503121561270f57600080fd5b600061271d858286016124fe565b925050602061272e8582860161257c565b9150509250929050565b60006020828403121561274a57600080fd5b600061275884828501612528565b91505092915050565b60006020828403121561277357600080fd5b60006127818482850161253d565b91505092915050565b60006020828403121561279c57600080fd5b60006127aa8482850161257c565b91505092915050565b6127bc8161330e565b82525050565b6127cb81613320565b82525050565b60006127dc826131b6565b6127e681856131cc565b93506127f6818560208601613391565b6127ff8161355d565b840191505092915050565b6000612815826131c1565b61281f81856131dd565b935061282f818560208601613391565b6128388161355d565b840191505092915050565b600061284e826131c1565b61285881856131ee565b9350612868818560208601613391565b80840191505092915050565b60008154612881816133c4565b61288b81866131ee565b945060018216600081146128a657600181146128b7576128ea565b60ff198316865281860193506128ea565b6128c0856131a1565b60005b838110156128e2578154818901526001820191506020810190506128c3565b838801955050505b50505092915050565b60006129006032836131dd565b915061290b8261356e565b604082019050919050565b60006129236025836131dd565b915061292e826135bd565b604082019050919050565b6000612946601c836131dd565b91506129518261360c565b602082019050919050565b6000612969600a836131ee565b915061297482613635565b600a82019050919050565b600061298c6024836131dd565b91506129978261365e565b604082019050919050565b60006129af6019836131dd565b91506129ba826136ad565b602082019050919050565b60006129d26063836131ee565b91506129dd826136d6565b606382019050919050565b60006129f5600b836131ee565b9150612a0082613771565b600b82019050919050565b6000612a18602c836131dd565b9150612a238261379a565b604082019050919050565b6000612a3b600d836131ee565b9150612a46826137e9565b600d82019050919050565b6000612a5e6038836131dd565b9150612a6982613812565b604082019050919050565b6000612a81602a836131dd565b9150612a8c82613861565b604082019050919050565b6000612aa46029836131dd565b9150612aaf826138b0565b604082019050919050565b6000612ac7602e836131dd565b9150612ad2826138ff565b604082019050919050565b6000612aea6002836131ee565b9150612af58261394e565b600282019050919050565b6000612b0d6020836131dd565b9150612b1882613977565b602082019050919050565b6000612b306031836131dd565b9150612b3b826139a0565b604082019050919050565b6000612b53602c836131dd565b9150612b5e826139ef565b604082019050919050565b6000612b76602f836131dd565b9150612b8182613a3e565b604082019050919050565b6000612b99600a836131ee565b9150612ba482613a8d565b600a82019050919050565b6000612bbc6021836131dd565b9150612bc782613ab6565b604082019050919050565b6000612bdf600a836131ee565b9150612bea82613b05565b600a82019050919050565b6000612c02601d836131ee565b9150612c0d82613b2e565b601d82019050919050565b6000612c256031836131dd565b9150612c3082613b57565b604082019050919050565b6000612c486019836131dd565b9150612c5382613ba6565b602082019050919050565b612c6781613378565b82525050565b6000612c798284612843565b915081905092915050565b6000612c908285612843565b9150612c9c8284612843565b91508190509392505050565b6000612cb48286612843565b9150612cc08285612843565b9150612ccc8284612843565b9150819050949350505050565b6000612ce58285612874565b9150612cf18284612843565b9150612cfc82612a2e565b91508190509392505050565b6000612d138261295c565b9150612d1f8284612843565b915081905092915050565b6000612d35826129e8565b9150612d418284612843565b915081905092915050565b6000612d5782612b8c565b9150612d638285612843565b9150612d6e826129c5565b9150612d7a8284612843565b9150612d8582612add565b91508190509392505050565b6000612d9c82612bd2565b9150612da88284612843565b915081905092915050565b6000612dbe82612bf5565b9150612dca8284612843565b915081905092915050565b6000602082019050612dea60008301846127b3565b92915050565b6000608082019050612e0560008301876127b3565b612e1260208301866127b3565b612e1f6040830185612c5e565b8181036060830152612e3181846127d1565b905095945050505050565b6000604082019050612e5160008301856127b3565b612e5e6020830184612c5e565b9392505050565b6000602082019050612e7a60008301846127c2565b92915050565b60006020820190508181036000830152612e9a818461280a565b905092915050565b60006040820190508181036000830152612ebc818561280a565b9050612ecb6020830184612c5e565b9392505050565b60006060820190508181036000830152612eec818661280a565b9050612efb6020830185612c5e565b612f0860408301846127b3565b949350505050565b60006020820190508181036000830152612f29816128f3565b9050919050565b60006020820190508181036000830152612f4981612916565b9050919050565b60006020820190508181036000830152612f6981612939565b9050919050565b60006020820190508181036000830152612f898161297f565b9050919050565b60006020820190508181036000830152612fa9816129a2565b9050919050565b60006020820190508181036000830152612fc981612a0b565b9050919050565b60006020820190508181036000830152612fe981612a51565b9050919050565b6000602082019050818103600083015261300981612a74565b9050919050565b6000602082019050818103600083015261302981612a97565b9050919050565b6000602082019050818103600083015261304981612aba565b9050919050565b6000602082019050818103600083015261306981612b00565b9050919050565b6000602082019050818103600083015261308981612b23565b9050919050565b600060208201905081810360008301526130a981612b46565b9050919050565b600060208201905081810360008301526130c981612b69565b9050919050565b600060208201905081810360008301526130e981612baf565b9050919050565b6000602082019050818103600083015261310981612c18565b9050919050565b6000602082019050818103600083015261312981612c3b565b9050919050565b60006020820190506131456000830184612c5e565b92915050565b6000613155613166565b905061316182826133f6565b919050565b6000604051905090565b600067ffffffffffffffff82111561318b5761318a61352e565b5b6131948261355d565b9050602081019050919050565b60008190508160005260206000209050919050565b600081519050919050565b600081519050919050565b600082825260208201905092915050565b600082825260208201905092915050565b600081905092915050565b600061320482613378565b915061320f83613378565b9250827fffffffffffffffffffffffffffffffffffffffffffffffffffffffffffffffff03821115613244576132436134a1565b5b828201905092915050565b600061325a82613378565b915061326583613378565b925082613275576132746134d0565b5b828204905092915050565b600061328b82613378565b915061329683613378565b9250817fffffffffffffffffffffffffffffffffffffffffffffffffffffffffffffffff04831182151516156132cf576132ce6134a1565b5b828202905092915050565b60006132e582613378565b91506132f083613378565b925082821015613303576133026134a1565b5b828203905092915050565b600061331982613358565b9050919050565b60008115159050919050565b60007fffffffff0000000000000000000000000000000000000000000000000000000082169050919050565b600073ffffffffffffffffffffffffffffffffffffffff82169050919050565b6000819050919050565b82818337600083830152505050565b60005b838110156133af578082015181840152602081019050613394565b838111156133be576000848401525b50505050565b600060028204905060018216806133dc57607f821691505b602082108114156133f0576133ef6134ff565b5b50919050565b6133ff8261355d565b810181811067ffffffffffffffff8211171561341e5761341d61352e565b5b80604052505050565b600061343282613378565b91507fffffffffffffffffffffffffffffffffffffffffffffffffffffffffffffffff821415613465576134646134a1565b5b600182019050919050565b600061347b82613378565b915061348683613378565b925082613496576134956134d0565b5b828206905092915050565b7f4e487b7100000000000000000000000000000000000000000000000000000000600052601160045260246000fd5b7f4e487b7100000000000000000000000000000000000000000000000000000000600052601260045260246000fd5b7f4e487b7100000000000000000000000000000000000000000000000000000000600052602260045260246000fd5b7f4e487b7100000000000000000000000000000000000000000000000000000000600052604160045260246000fd5b6000601f19601f8301169050919050565b7f4552433732313a207472616e7366657220746f206e6f6e20455243373231526560008201527f63656976657220696d706c656d656e7465720000000000000000000000000000602082015250565b7f4552433732313a207472616e736665722066726f6d20696e636f72726563742060008201527f6f776e6572000000000000000000000000000000000000000000000000000000602082015250565b7f4552433732313a20746f6b656e20616c7265616479206d696e74656400000000600082015250565b7f54484952445f574f524400000000000000000000000000000000000000000000600082015250565b7f4552433732313a207472616e7366657220746f20746865207a65726f2061646460008201527f7265737300000000000000000000000000000000000000000000000000000000602082015250565b7f4552433732313a20617070726f766520746f2063616c6c657200000000000000600082015250565b7f222c20226465736372697074696f6e223a20224120686967686c79206163636c60008201527f61696d656420636f6c6c656374696f6e206f6620737175617265732e222c202260208201527f696d616765223a2022646174613a696d6167652f7376672b786d6c3b6261736560408201527f36342c0000000000000000000000000000000000000000000000000000000000606082015250565b7f5345434f4e445f574f5244000000000000000000000000000000000000000000600082015250565b7f4552433732313a206f70657261746f7220717565727920666f72206e6f6e657860008201527f697374656e7420746f6b656e0000000000000000000000000000000000000000602082015250565b7f3c2f746578743e3c2f7376673e00000000000000000000000000000000000000600082015250565b7f4552433732313a20617070726f76652063616c6c6572206973206e6f74206f7760008201527f6e6572206e6f7220617070726f76656420666f7220616c6c0000000000000000602082015250565b7f4552433732313a2062616c616e636520717565727920666f7220746865207a6560008201527f726f206164647265737300000000000000000000000000000000000000000000602082015250565b7f4552433732313a206f776e657220717565727920666f72206e6f6e657869737460008201527f656e7420746f6b656e0000000000000000000000000000000000000000000000602082015250565b7f45524337323155524953746f726167653a2055524920736574206f66206e6f6e60008201527f6578697374656e7420746f6b656e000000000000000000000000000000000000602082015250565b7f227d000000000000000000000000000000000000000000000000000000000000600082015250565b7f4552433732313a206d696e7420746f20746865207a65726f2061646472657373600082015250565b7f45524337323155524953746f726167653a2055524920717565727920666f722060008201527f6e6f6e6578697374656e7420746f6b656e000000000000000000000000000000602082015250565b7f4552433732313a20617070726f76656420717565727920666f72206e6f6e657860008201527f697374656e7420746f6b656e0000000000000000000000000000000000000000602082015250565b7f4552433732314d657461646174613a2055524920717565727920666f72206e6f60008201527f6e6578697374656e7420746f6b656e0000000000000000000000000000000000602082015250565b7f7b226e616d65223a202200000000000000000000000000000000000000000000600082015250565b7f4552433732313a20617070726f76616c20746f2063757272656e74206f776e6560008201527f7200000000000000000000000000000000000000000000000000000000000000602082015250565b7f46495253545f574f524400000000000000000000000000000000000000000000600082015250565b7f646174613a6170706c69636174696f6e2f6a736f6e3b6261736536342c000000600082015250565b7f4552433732313a207472616e736665722063616c6c6572206973206e6f74206f60008201527f776e6572206e6f7220617070726f766564000000000000000000000000000000602082015250565b7f4e6f206d6f7265204e46542063616e206265206d696e74656400000000000000600082015250565b613bd88161330e565b8114613be357600080fd5b50565b613bef81613320565b8114613bfa57600080fd5b50565b613c068161332c565b8114613c1157600080fd5b50565b613c1d81613378565b8114613c2857600080fd5b5056fe416e204e465420772f20494420257320686173206265656e206d696e74656420746f2025734142434445464748494a4b4c4d4e4f505152535455565758595a6162636465666768696a6b6c6d6e6f707172737475767778797a303132333435363738392b2fa264697066735822122004d4afa703abe7ba1720aaf5b6abf65465978d20ce4de5839a04d4f5f242e94864736f6c634300080400333c73766720786d6c6e733d27687474703a2f2f7777772e77332e6f72672f323030302f73766727207072657365727665417370656374526174696f3d27784d696e594d696e206d656574272076696577426f783d273020302033353020333530273e3c7374796c653e2e62617365207b2066696c6c3a2077686974653b20666f6e742d66616d696c793a2073657269663b20666f6e742d73697a653a20323470783b207d3c2f7374796c653e3c726563742077696474683d273130302527206865696768743d2731303025272066696c6c3d27626c61636b27202f3e3c7465787420783d273530252720793d273530252720636c6173733d27626173652720646f6d696e616e742d626173656c696e653d276d6964646c652720746578742d616e63686f723d276d6964646c65273e",
  "linkReferences": {},
  "deployedLinkReferences": {}
}